:020000040800F2
:10000000FF1F00207D02000875020008750200082D
:100010007502000875020008750200080000000063
:100020000000000000000000000000007502000851
:100030007502000800000000750200087502000843
:1000400075020008750200087502000875020008B4
:1000500075020008750200087502000875020008A4
:100060007502000875020008750200087502000894
:100070007502000875020008750200087502000884
:100080007502000875020008750200087502000874
:1000900000000000750200087502000875020008E3
:1000A0007502000875020008750200087502000854
:1000B00075020008750200087502000800000000C3
:0400C00075020008BD
:1000C40000B5034B1A78002A01D101321A7000BD21
:1000D4000000002008B504480368002B03D0034B3C
:1000E400002B00D0984708BD00000020000000004D
:1000F40007B5C0239B006A460093012313710233A2
:1001040053710248694600F0D9F807BD0008004859
:1001140008B580200003012100F00EF908BD07B5E1
:1001240043011B1A9B001818C000019002E0019BB8
:10013400013B0193019B002BF9D107BD08B5FFF7E3
:10014400E7FFFFF7D5FF80210B48890000F0EFF8A7
:1001540080214900084800F0EAF8FA208000FFF7FF
:10016400DEFF80210448490000F0E3F8FA20800013
:10017400FFF7D5FFECE7C0460008004807B5344B4D
:1001840001221968114319605868324901405960C5
:1001940018683149014019601868304901401960F4
:1001A40058682F4901405960D96A0F208143D962A8
:1001B400186B2C4901401963596B91430022596310
:1001C4009A60019200921968803252020A431A60BE
:1001D4001968802292021140009101990131019124
:1001E4000099002904D1A0310198C9018842EFD1B6
:1001F40019680A4000D001220092009A012A25D1F0
:10020400194A112111605A685A605A685A6059682B
:10021400164A0A405A605968882252030A435A60AF
:100224001968802252040A431A601968084A88012E
:10023400FBD5516803208143516051680138014363
:10024400516059680C220A40082AFAD107BDC046F9
:10025400001002400CB8FFF8FFFFF6FEFFFFFBFFA3
:10026400FFFFC0FFACFEFFFF00200240FF7FC0FF86
:1002740000B5FEE77047000008B50B4A0B4B01E0E0
:1002840002CA02C30A498B42FAD30A4B01E0002294
:1002940004C3094A9342FAD3FFF770FFFFF7EAFF5A
:1002A400FFF74CFFFEE7C04678030008000000207B
:1002B400000000200000002004000020F7B50B68B7
:1002C400019300231A1C0125019C95402C40AC424B
:1002D40028D10D796F1E012F12D8876803269E40FE
:1002E400B74387604E7987689E4037438760878825
:1002F400A74387808C79878894403C43A4B2848048
:10030400032407689C40E4432740076007689D4036
:100314003D430560C5682C40C460CC79C5689C40E9
:100324002C43C46001320233102ACCD1F7BD816161
:10033400704701857047000000B5054B002903D0C4
:100344009A691043986102E09A6982439A6100BDF8
:1003540000100240F8B5C046F8BC08BC9E46704781
:0C036400F8B5C046F8BC08BC9E467047C7
:04037000D9000008A8
:04037400C5000008B8
:040000050800027D70
:00000001FF
